:100000000C942A000C943F000C943F000C943F0089
:100010000C943F000C943F000C943F000C943F0064
:100020000C943F000C943F000C943F000C943F0054
:100030000C943F000C943F000C943F000C943F0044
:100040000C943F000C943F000C943F000C943F0034
:100050000C943F0011241FBECFE5D8E0DEBFCDBF1A
:1000600010E0A0E6B0E0EAECF0E302C005900D92EB
:10007000A836B107D9F70E94FD160C9463180C94AA
:100080000000EF92FF920F931F937B018C0120E001
:1000900030E040E05FE40E94410388238CF0C80117
:1000A000B70120E030E040E05FE40E94B9010E9427
:1000B000A1039B01AC01205030404040504806C095
:1000C000C801B7010E94A1039B01AC01B901CA019B
:1000D0001F910F91FF90EF900895A0E0B0E0E3E74B
:1000E000F0E00C942C18DC012B01FA019C91923069
:1000F00008F439C1EB018881823008F433C19430AF
:1001000069F4843009F02FC111969C91119789816F
:10011000981709F428C1A0E6B0E025C1843009F49D
:1001200021C18230A9F4923009F01DC19A01AD01BC
:1001300088E0EA010990AE01E90109929E0181502F
:10014000C1F7E201898111969C918923818308C1BD
:10015000923009F407C112962D903C901397EB0151
:100160008A819B811496AD90BD90CD90DC901797BD
:10017000EC80FD800E811F819101281B390BB90194
:1001800037FF04C066277727621B730B6032710547
:100190000CF061C0121613066CF537014801062EEB
:1001A00004C096948794779467940A94D2F721E0D8
:1001B00030E040E050E004C0220F331F441F551FC1
:1001C0006A95D2F721503040404050402E213F21C7
:1001D00040235123211531054105510521F021E02E
:1001E00030E040E050E079018A01E628F72808294C
:1001F00019293CC0232BD1F1260E371E35014601AB
:10020000062E04C096948794779467940A94D2F744
:1002100021E030E040E050E004C0220F331F441FD3
:10022000551F6A95D2F721503040404050402A2156
:100230003B214C215D21211531054105510521F05E
:1002400021E030E040E050E059016A01A628B728DB
:10025000C828D9280BC0821593052CF01C01AA24AC
:10026000BB24650103C0EE24FF24870111969C91F5
:10027000D20111968C91981709F445C0992339F051
:10028000A80197012A193B094C095D0906C0A6017E
:1002900095012E193F09400B510B57FD08C01182E3
:1002A0003382228224833583468357831DC081E0B5
:1002B00081833382228288279927DC01821B930B5A
:1002C000A40BB50B84839583A683B7830DC0220F3F
:1002D000331F441F551F24833583468357838281F0
:1002E000938101979383828324813581468157814D
:1002F000DA01C9010197A109B1098F5F9F4FAF4F83
:10030000BF4328F30BC0918333822282EA0CFB1C8B
:100310000C1D1D1DE482F5820683178383E0808314
:10032000248135814681578157FF1AC0C901AA2708
:1003300097FDA095BA2F81709070A070B0705695FF
:10034000479537952795822B932BA42BB52B848328
:100350009583A683B7838281938101969383828359
:10036000DF0101C0D201CD01CDB7DEB7E2E10C94CF
:100370004818A0E2B0E0EFEBF1E00C943818698384
:100380007A838B839C832D833E834F835887E9E058
:10039000EE2EF12CEC0EFD1ECE010196B7010E944F
:1003A000CA048E010F5E1F4FCE010596B8010E9450
:1003B000CA048A8991E089278A8BC701B801AE01F6
:1003C000475E5F4F0E946D000E94F503A096E6E035
:1003D0000C945418A0E2B0E0E0EFF1E00C9438186F
:1003E00069837A838B839C832D833E834F835887D5
:1003F000F9E0EF2EF12CEC0EFD1ECE010196B701B7
:100400000E94CA048E010F5E1F4FCE010596B801EF
:100410000E94CA04C701B801AE01475E5F4F0E9447
:100420006D000E94F503A096E6E00C945418A0E23B
:10043000B0E0EDE1F2E00C942C1869837A838B83B1
:100440009C832D833E834F835887CE010196BE0146
:10045000675F7F4F0E94CA04CE010596BE016F5EA2
:100460007F4F0E94CA049985923088F08989823032
:10047000C8F0943019F4823051F404C0843029F467
:10048000923081F480E690E0C6C0923049F420E0DA
:100490009A858A89981321E02A87CE010996BBC0E4
:1004A000823049F420E09A858A89981321E02A8BCA
:1004B000CE014196B0C02D843E844F8458886D880B
:1004C0007E888F88988CEE24FF248701AA24BB2481
:1004D000650140E050E060E070E0E0E0F0E0C10184
:1004E00081709070892BE9F0E60CF71C081D191D2E
:1004F0009A01AB012A0D3B1D4C1D5D1D80E090E073
:10050000A0E0B0E0E614F7040805190520F481E046
:1005100090E0A0E0B0E0BA01A901480F591F6A1F9E
:100520007B1FAA0CBB1CCC1CDD1C97FE08C081E005
:1005300090E0A0E0B0E0A82AB92ACA2ADB2A3196C6
:10054000E032F10549F0660C771C881C991C569422
:10055000479437942794C3CFFA85EA892B893C893D
:100560008B859C85280F391F2E5F3F4F17C0CA010E
:1005700081709070892B61F016950795F794E79438
:1005800080E090E0A0E0B0E8E82AF92A0A2B1B2BD3
:1005900076956795579547952F5F3F4F77FDE7CF46
:1005A0000CC0440F551F661F771F17FD4160EE0CEE
:1005B000FF1C001F111F21503040403090E05907B0
:1005C00090E0690790E4790760F32B8F3C8FDB01A3
:1005D000CA018F779070A070B07080349105A1052A
:1005E000B10561F447FD0AC0E114F10401051105EC
:1005F00029F0405C5F4F6F4F7F4F40781A8EFE1797
:1006000011F081E08A8F4D8F5E8F6F8F78A383E02A
:10061000898FCE0149960E94F503A096E2E10C94E1
:100620004818A8E1B0E0E7E1F3E00C9438186983DA
:100630007A838B839C832D833E834F83588789E005
:10064000E82EF12CEC0EFD1ECE010196B7010E94A2
:10065000CA048E010F5E1F4FCE010596B8010E949D
:10066000CA048985823040F08989823028F0C70128
:10067000B8010E94420501C08FEF6896E6E00C9435
:100680005418A8E1B0E0E7E4F3E00C94381869836B
:100690007A838B839C832D833E834F83588789E0A5
:1006A000E82EF12CEC0EFD1ECE010196B7010E9442
:1006B000CA048E010F5E1F4FCE010596B8010E943D
:1006C000CA048985823040F08989823028F0C701C8
:1006D000B8010E94420501C08FEF6896E6E00C94D5
:1006E0005418A8E1B0E0E7E7F3E00C943818698308
:1006F0007A838B839C832D833E834F83588789E045
:10070000E82EF12CEC0EFD1ECE010196B7010E94E1
:10071000CA048E010F5E1F4FCE010596B8010E94DC
:10072000CA048985823040F08989823028F0C70167
:10073000B8010E94420501C081E06896E6E00C9491
:100740005418ACE0B0E0E7EAF3E00C943C1869839D
:100750007A838B839C83CE010196BE016B5F7F4FB2
:100760000E94CA048D81823061F1823050F1843060
:1007700021F48E81882351F12EC02F81388537FDD9
:1007800020C06E812F3131051CF06623F9F023C0A3
:100790008EE190E0821B930B29853A854B855C8521
:1007A00004C056954795379527958A95D2F76623C5
:1007B000B1F050954095309521953F4F4F4F5F4F89
:1007C0000EC020E030E040E050E009C02FEF3FEFE6
:1007D0004FEF5FE704C020E030E040E050E8B901AF
:1007E000CA012C96E2E00C945818DF92EF92FF9227
:1007F0000F931F93FC01E480F58006811781D1805F
:100800008081823048F480E090E0A0E1B0E0E82A06
:10081000F92A0A2B1B2BA5C0843009F49FC0823013
:1008200021F4EE24FF24870105C0E114F104010541
:10083000110519F4E0E0F0E096C0628173819FEF4A
:10084000623879070CF05BC022E83FEF261B370BBC
:100850002A3131052CF020E030E040E050E02AC0A1
:10086000B801A701022E04C0769567955795479564
:100870000A94D2F781E090E0A0E0B0E004C0880FD5
:10088000991FAA1FBB1F2A95D2F70197A109B10989
:100890008E219F21A023B1230097A105B10521F04E
:1008A00081E090E0A0E0B0E09A01AB01282B392B69
:1008B0004A2B5B2BDA01C9018F779070A070B07062
:1008C00080349105A105B10539F427FF09C0205CEA
:1008D0003F4F4F4F5F4F04C0215C3F4F4F4F5F4F23
:1008E000E0E0F0E02030A0E03A07A0E04A07A0E412
:1008F0005A0710F0E1E0F0E079018A0127C0603882
:10090000710564F5FB01E158FF4FD801C7018F77EE
:100910009070A070B07080349105A105B10539F4D4
:10092000E7FE0DC080E490E0A0E0B0E004C08FE3FB
:1009300090E0A0E0B0E0E80EF91E0A1F1B1F17FFB1
:1009400005C016950795F794E794319687E01695BC
:100950000795F794E7948A95D1F705C0EE24FF2414
:100960008701EFEFF0E06E2F679566276795902F70
:100970009F77D794DD24D7948E2F8695492F462BC9
:10098000582F5D29B701CA011F910F91FF90EF9079
:10099000DF900895FC01DB01408151812281622FAB
:1009A0006F7770E0221F2227221F9381892F880FE3
:1009B000822B282F30E0991F9927991F11969C931D
:1009C000119721153105A9F54115510561057105ED
:1009D00011F482E037C082E89FEF13969C938E93C8
:1009E00012979A01AB0167E0220F331F441F551F76
:1009F0006A95D1F783E08C930DC0220F331F441FFB
:100A0000551F12968D919C911397019713969C9365
:100A10008E931297203080E0380780E0480780E40A
:100A2000580758F314962D933D934D935C93179765
:100A300008952F3F310579F4411551056105710580
:100A400019F484E08C93089564FF03C081E08C93D3
:100A500012C01C9210C02F57304013963C932E9317
:100A6000129783E08C9387E0440F551F661F771F12
:100A70008A95D1F7706414964D935D936D937C9332
:100A8000179708951F93DC01FB019C91923008F4A5
:100A900047C08081823008F443C0943051F41196ED
:100AA0001C91843099F58181682F70E0611B710978
:100AB0003FC0843021F0923031F48230B9F181812D
:100AC000882389F12DC011961C9111978230F1F085
:100AD00081811817D9F412962D913C911397828138
:100AE00093818217930794F028173907BCF0149666
:100AF0008D919D910D90BC91A02D248135814681D1
:100B00005781281739074A075B0718F4112341F06A
:100B10000AC082179307A407B50740F4112319F000
:100B200061E070E005C06FEF7FEF02C060E070E051
:100B3000CB011F910895DF93CF9300D0CDB7DEB7DF
:100B400089836A838981883080F58A818823A9F422
:100B5000ABE3B0E0EBE3F0E08081482F8981282F00
:100B600030E081E090E0022E02C0880F991F0A94C5
:100B7000E2F7809584238C93CAC08A81813009F082
:100B8000C6C0ABE3B0E0EBE3F0E08081482F8981A1
:100B9000282F30E081E090E0022E02C0880F991FDC
:100BA0000A94E2F7842B8C93B2C089818830C8F113
:100BB00089818031B0F58A818823C1F4A8E3B0E04F
:100BC000E8E3F0E08081482F8981882F90E09C0144
:100BD0002850304081E090E0022E02C0880F991F1B
:100BE0000A94E2F7809584238C9391C08A818130A6
:100BF00009F08DC0A8E3B0E0E8E3F0E08081482F81
:100C00008981882F90E09C012850304081E090E05D
:100C1000022E02C0880F991F0A94E2F7842B8C934E
:100C200076C089818031C8F189818831B0F58A81A7
:100C30008823C1F4A5E3B0E0E5E3F0E08081482F2C
:100C40008981882F90E09C012051304081E090E024
:100C5000022E02C0880F991F0A94E2F78095842320
:100C60008C9355C08A81813009F051C0A5E3B0E072
:100C7000E5E3F0E08081482F8981882F90E09C0196
:100C80002051304081E090E0022E02C0880F991F71
:100C90000A94E2F7842B8C933AC089818831B8F1A9
:100CA00089818032A0F58A818823C1F4A2E3B0E073
:100CB000E2E3F0E08081482F8981882F90E09C0159
:100CC0002851304081E090E0022E02C0880F991F29
:100CD0000A94E2F7809584238C9319C08A8181302D
:100CE000B1F4A2E3B0E0E2E3F0E08081482F898133
:100CF000882F90E09C012851304081E090E0022E46
:100D000002C0880F991F0A94E2F7842B8C930F90EE
:100D10000F90CF91DF910895DF93CF9300D0CDB79F
:100D2000DEB78A8319828A81883090F4E9E3F0E0A3
:100D30008081482F8A81282F30E081E090E0022EC8
:100D400002C0880F991F0A94E2F78423898350C058
:100D50008A818830C0F08A818031A8F4E6E3F0E02F
:100D60008081482F8A81882F90E09C012850304054
:100D700081E090E0022E02C0880F991F0A94E2F7EA
:100D80008423898335C08A818031C0F08A8188318B
:100D9000A8F4E3E3F0E08081482F8A81882F90E077
:100DA0009C012051304081E090E0022E02C0880F6B
:100DB000991F0A94E2F7842389831AC08A818831B3
:100DC000B8F08A818032A0F4E0E3F0E08081482F1F
:100DD0008A81882F90E09C012851304081E090E08A
:100DE000022E02C0880F991F0A94E2F78423898398
:100DF0008981882311F081E0898389810F900F9088
:100E0000CF91DF910895DF93CF9300D0CDB7DEB7B8
:100E100089836A838981883080F58A818823A9F44F
:100E2000AAE3B0E0EAE3F0E08081482F8981282F2F
:100E300030E081E090E0022E02C0880F991F0A94F2
:100E4000E2F7809584238C93CAC08A81813009F0AF
:100E5000C6C0AAE3B0E0EAE3F0E08081482F8981D0
:100E6000282F30E081E090E0022E02C0880F991F09
:100E70000A94E2F7842B8C93B2C089818830C8F140
:100E800089818031B0F58A818823C1F4A7E3B0E07D
:100E9000E7E3F0E08081482F8981882F90E09C0172
:100EA0002850304081E090E0022E02C0880F991F48
:100EB0000A94E2F7809584238C9391C08A818130D3
:100EC00009F08DC0A7E3B0E0E7E3F0E08081482FB0
:100ED0008981882F90E09C012850304081E090E08B
:100EE000022E02C0880F991F0A94E2F7842B8C937C
:100EF00076C089818031C8F189818831B0F58A81D5
:100F00008823C1F4A4E3B0E0E4E3F0E08081482F5B
:100F10008981882F90E09C012051304081E090E051
:100F2000022E02C0880F991F0A94E2F7809584234D
:100F30008C9355C08A81813009F051C0A4E3B0E0A0
:100F4000E4E3F0E08081482F8981882F90E09C01C4
:100F50002051304081E090E0022E02C0880F991F9E
:100F60000A94E2F7842B8C933AC089818831B8F1D6
:100F700089818032A0F58A818823C1F4A1E3B0E0A1
:100F8000E1E3F0E08081482F8981882F90E09C0187
:100F90002851304081E090E0022E02C0880F991F56
:100FA0000A94E2F7809584238C9319C08A8181305A
:100FB000B1F4A1E3B0E0E1E3F0E08081482F898162
:100FC000882F90E09C012851304081E090E0022E73
:100FD00002C0880F991F0A94E2F7842B8C930F901C
:100FE0000F90CF91DF9108950F931F93DF93CF93CD
:100FF000CDB7DEB7C256D0400FB6F894DEBF0FBEF5
:10100000CDBF83E061E00E94030781E061E00E94C0
:10101000030782E061E00E94030784E061E00E9430
:10102000030785E061E00E94030786E061E00E941B
:10103000030787E061E00E940307FE01E15AFF4FCA
:1010400080E090E0ACE0B2E480839183A283B3833C
:101050008E01055A1F4FFE01E15AFF4F60817181D9
:101060008281938120E030E04AEF54E40E9417022D
:10107000DC01CB01F80180839183A283B383FE015D
:10108000E55AFF4F608171818281938120E030E0D9
:1010900040E85FE30E947103882344F4FE01E75AAD
:1010A000FF4F81E090E09183808364C0FE01E55AA8
:1010B000FF4F608171818281938120E03FEF4FE794
:1010C00057E40E94110318160CF043C0FE01E15AC8
:1010D000FF4F608171818281938120E030E040E2A6
:1010E00051E40E941702DC01CB018E01075A1F4F09
:1010F000BC01CD010E944100DC01CB01F8019183CC
:1011000080831FC0FE01E95AFF4F88EC90E0918375
:101110008083FE01E95AFF4F808191810197F1F7A9
:10112000FE01E95AFF4F91838083DE01A75ABF4F2A
:10113000FE01E75AFF4F80819181019711969C93A0
:101140008E93FE01E75AFF4F808191810097D1F67F
:1011500027C08E01075A1F4FFE01E55AFF4F6081DD
:101160007181828193810E944100DC01CB01F801F1
:1011700091838083DE01AB5ABF4FFE01E75AFF4FD8
:10118000808191818D939C93FE01EB5AFF4F80816A
:1011900091810197F1F7FE01EB5AFF4F9183808314
:1011A00083E30E94EE0BFE01EF5AFF4F80E090E0D8
:1011B000A0E0B0E480839183A283B3838E01035BBC
:1011C0001F4FFE01EF5AFF4F608171818281938131
:1011D00020E030E04AEF54E40E941702DC01CB012A
:1011E000F80180839183A283B383FE01E35BFF4F09
:1011F000608171818281938120E030E040E85FE38B
:101200000E947103882344F4FE01E55BFF4F81E0F7
:1012100090E09183808364C0FE01E35BFF4F6081B7
:1012200071818281938120E03FEF4FE757E40E9474
:10123000110318160CF043C0FE01EF5AFF4F6081F6
:1012400071818281938120E030E040E251E40E948C
:101250001702DC01CB018E01055B1F4FBC01CD01E4
:101260000E944100DC01CB01F801918380831FC003
:10127000FE01E75BFF4F88EC90E091838083FE01E5
:10128000E75BFF4F808191810197F1F7FE01E75BFA
:10129000FF4F91838083DE01A55BBF4FFE01E55BBD
:1012A000FF4F80819181019711969C938E93FE014F
:1012B000E55BFF4F808191810097D1F627C08E01B9
:1012C000055B1F4FFE01E35BFF4F608171818281EF
:1012D00093810E944100DC01CB01F801918380835E
:1012E000DE01A95BBF4FFE01E55BFF4F808191816D
:1012F0008D939C93FE01E95BFF4F80819181019763
:10130000F1F7FE01E95BFF4F9183808382E30E9446
:10131000EE0BFE01ED5BFF4F80E090E0A0E0B0E45B
:1013200080839183A283B3838E01015C1F4FFE01F2
:10133000ED5BFF4F608171818281938120E030E01D
:101340004AEF54E40E941702DC01CB01F8018083CC
:101350009183A283B383FE01FF96608171818281B4
:10136000938120E030E040E85FE30E94710388232E
:101370002CF481E090E09EAF8DAF46C0FE01FF9659
:10138000608171818281938120E03FEF4FE757E4D4
:101390000E941103181664F5FE01ED5BFF4F60819A
:1013A00071818281938120E030E040E251E40E942B
:1013B0001702DC01CB01BC01CD010E944100DC0120
:1013C000CB019EAF8DAF0FC088EC90E09CAF8BAF90
:1013D0008BAD9CAD0197F1F79CAF8BAF8DAD9EAD02
:1013E00001979EAF8DAF8DAD9EAD009769F716C08A
:1013F000FE01FF9660817181828193810E9441008C
:10140000DC01CB019EAF8DAF8DAD9EAD9AAF89AFA4
:1014100089AD9AAD0197F1F79AAF89AF88E20E9442
:10142000EE0B80E090E0A0E0B0E48DAB9EABAFAB04
:10143000B8AF6DA97EA98FA998AD20E030E04AEF42
:1014400054E40E941702DC01CB0189AB9AABABAB31
:10145000BCAB69A97AA98BA99CA920E030E040E83F
:101460005FE30E94710388232CF481E090E098AB45
:101470008FA73FC069A97AA98BA99CA920E03FEF5B
:101480004FE757E40E94110318164CF56DA97EA989
:101490008FA998AD20E030E040E251E40E941702AD
:1014A000DC01CB01BC01CD010E944100DC01CB017C
:1014B00098AB8FA70FC088EC90E09EA78DA78DA555
:1014C0009EA50197F1F79EA78DA78FA598A90197D3
:1014D00098AB8FA78FA598A9009769F714C069A941
:1014E0007AA98BA99CA90E944100DC01CB0198AB91
:1014F0008FA78FA598A99CA78BA78BA59CA50197C3
:10150000F1F79CA78BA78CE00E94EE0B80E090E0A7
:10151000A0E0B0E48FA398A7A9A7BAA76FA178A568
:1015200089A59AA520E030E04AEF54E40E94170212
:10153000DC01CB018BA39CA3ADA3BEA36BA17CA1BB
:101540008DA19EA120E030E040E85FE30E9471039E
:1015500088232CF481E090E09AA389A33FC06BA17B
:101560007CA18DA19EA120E03FEF4FE757E40E94B0
:10157000110318164CF56FA178A589A59AA520E04E
:1015800030E040E251E40E941702DC01CB01BC01D3
:10159000CD010E944100DC01CB019AA389A30FC0B9
:1015A00088EC90E098A38F8F8F8D98A10197F1F729
:1015B00098A38F8F89A19AA101979AA389A389A142
:1015C0009AA1009769F714C06BA17CA18DA19EA17F
:1015D0000E944100DC01CB019AA389A389A19AA1B1
:1015E0009E8F8D8F8D8D9E8D0197F1F79E8F8D8FA4
:1015F00086E00E94EE0B80E090E0A0E0B0E4898FEE
:101600009A8FAB8FBC8F698D7A8D8B8D9C8D20E0EE
:1016100030E04AEF54E40E941702DC01CB018D8BCD
:101620009E8BAF8BB88F6D897E898F89988D20E0D6
:1016300030E040E85FE30E94710388232CF481E0EE
:1016400090E09C8B8B8B3FC06D897E898F89988DB4
:1016500020E03FEF4FE757E40E94110318164CF5C6
:10166000698D7A8D8B8D9C8D20E030E040E251E4D5
:101670000E941702DC01CB01BC01CD010E94410098
:10168000DC01CB019C8B8B8B0FC088EC90E09A8B9C
:10169000898B89899A890197F1F79A8B898B8B8934
:1016A0009C8901979C8B8B8B8B899C89009769F710
:1016B00014C06D897E898F89988D0E944100DC015C
:1016C000CB019C8B8B8B8B899C89988B8F878F858B
:1016D00098890197F1F7988B8F8781E00E94EE0B34
:1016E00080E090E0A0E7B1E48B879C87AD87BE8760
:1016F0006B857C858D859E8520E030E04AEF54E443
:101700000E941702DC01CB018F839887A987BA87D3
:101710006F81788589859A8520E030E040E85FE335
:101720000E94710388232CF481E090E09E838D83D6
:101730003FC06F81788589859A8520E03FEF4FE72C
:1017400057E40E94110318164CF56B857C858D8536
:101750009E8520E030E040E251E40E941702DC0167
:10176000CB01BC01CD010E944100DC01CB019E8375
:101770008D830FC088EC90E09C838B838B819C8150
:101780000197F1F79C838B838D819E8101979E83C6
:101790008D838D819E81009769F714C06F81788554
:1017A00089859A850E944100DC01CB019E838D834F
:1017B0008D819E819A83898389819A810197F1F72E
:1017C0009A838983CE59DF4F0FB6F894DEBF0FBEE0
:1017D000CDBFCF91DF911F910F9108950F931F936C
:1017E000DF93CF93CDB7DEB7C157D0400FB6F89493
:1017F000DEBF0FBECDBFFE01EF58FF4F808381E0FB
:1018000060E00E949B05FE01E359FF4F80E090E0FD
:10181000A0E8BFE380839183A283B3838E0107593D
:101820001F4FFE01E359FF4F6081718182819381D7
:1018300020E030E04AEF54E40E941702DC01CB01C3
:10184000F80180839183A283B383FE01E759FF4FA0
:10185000608171818281938120E030E040E85FE324
:101860000E947103882344F4FE01E959FF4F81E08F
:1018700090E09183808364C0FE01E759FF4F60814F
:1018800071818281938120E03FEF4FE757E40E940E
:10189000110318160CF043C0FE01E359FF4F60819D
:1018A00071818281938120E030E040E251E40E9426
:1018B0001702DC01CB018E0109591F4FBC01CD017C
:1018C0000E944100DC01CB01F801918380831FC09D
:1018D000FE01EB59FF4F88EC90E091838083FE017D
:1018E000EB59FF4F808191810197F1F7FE01EB5990
:1018F000FF4F91838083DE01A959BF4FFE01E95953
:10190000FF4F80819181019711969C938E93FE01E8
:10191000E959FF4F808191810097D1F627C08E0150
:1019200009591F4FFE01E759FF4F60817181828184
:1019300093810E944100DC01CB01F80191838083F7
:10194000DE01AD59BF4FFE01E959FF4F8081918102
:101950008D939C93FE01ED59FF4F808191810197FA
:10196000F1F7FE01ED59FF4F9183808383E061E041
:101970000E949B05FE01E15AFF4F80E090E0A0E845
:10198000BFE380839183A283B3838E01055A1F4FE7
:10199000FE01E15AFF4F608171818281938120E0D5
:1019A00030E04AEF54E40E941702DC01CB01F80159
:1019B00080839183A283B383FE01E55AFF4F608148
:1019C00071818281938120E030E040E85FE30E94F2
:1019D0007103882344F4FE01E75AFF4F81E090E051
:1019E0009183808364C0FE01E55AFF4F608171815D
:1019F0008281938120E03FEF4FE757E40E9411037B
:101A000018160CF043C0FE01E15AFF4F608171814E
:101A10008281938120E030E040E251E40E9417028D
:101A2000DC01CB018E01075A1F4FBC01CD010E9482
:101A30004100DC01CB01F801918380831FC0FE01CE
:101A4000E95AFF4F88EC90E091838083FE01E95AC8
:101A5000FF4F808191810197F1F7FE01E95AFF4F15
:101A600091838083DE01A75ABF4FFE01E75AFF4FE3
:101A700080819181019711969C938E93FE01E75A84
:101A8000FF4F808191810097D1F627C08E01075AC0
:101A90001F4FFE01E55AFF4F608171818281938162
:101AA0000E944100DC01CB01F80191838083DE01BB
:101AB000AB5ABF4FFE01E75AFF4F808191818D9352
:101AC0009C93FE01EB5AFF4F808191810197F1F7C2
:101AD000FE01EB5AFF4F91838083ABE3B0E0EBE371
:101AE000F0E08081982F9F70FE01EF58FF4F8081BA
:101AF000807F892B8C93FE01EF5AFF4F80E090E0AE
:101B0000A0E8BFE380839183A283B3838E01035B4C
:101B10001F4FFE01EF5AFF4F6081718182819381D7
:101B200020E030E04AEF54E40E941702DC01CB01D0
:101B3000F80180839183A283B383FE01E35BFF4FAF
:101B4000608171818281938120E030E040E85FE331
:101B50000E947103882344F4FE01E55BFF4F81E09E
:101B600090E09183808364C0FE01E35BFF4F60815E
:101B700071818281938120E03FEF4FE757E40E941B
:101B8000110318160CF043C0FE01EF5AFF4F60819D
:101B900071818281938120E030E040E251E40E9433
:101BA0001702DC01CB018E01055B1F4FBC01CD018B
:101BB0000E944100DC01CB01F801918380831FC0AA
:101BC000FE01E75BFF4F88EC90E091838083FE018C
:101BD000E75BFF4F808191810197F1F7FE01E75BA1
:101BE000FF4F91838083DE01A55BBF4FFE01E55B64
:101BF000FF4F80819181019711969C938E93FE01F6
:101C0000E55BFF4F808191810097D1F627C08E015F
:101C1000055B1F4FFE01E35BFF4F60817181828195
:101C200093810E944100DC01CB01F8019183808304
:101C3000DE01A95BBF4FFE01E55BFF4F8081918113
:101C40008D939C93FE01E95BFF4F80819181019709
:101C5000F1F7FE01E95BFF4F9183808383E060E051
:101C60000E949B05FE01ED5BFF4F80E090E0A0E845
:101C7000BFE380839183A283B3838E01015C1F4FF6
:101C8000FE01ED5BFF4F608171818281938120E0D5
:101C900030E04AEF54E40E941702DC01CB01F80166
:101CA00080839183A283B383FE01FF96608171815B
:101CB0008281938120E030E040E85FE30E9471037D
:101CC00088232CF481E090E09EAF8DAF46C0FE01EA
:101CD000FF96608171818281938120E03FEF4FE721
:101CE00057E40E941103181664F5FE01ED5BFF4FE7
:101CF000608171818281938120E030E040E251E493
:101D00000E941702DC01CB01BC01CD010E94410001
:101D1000DC01CB019EAF8DAF0FC088EC90E09CAF93
:101D20008BAF8BAD9CAD0197F1F79CAF8BAF8DADB9
:101D30009EAD01979EAF8DAF8DAD9EAD009769F7BB
:101D400016C0FE01FF9660817181828193810E949D
:101D50004100DC01CB019EAF8DAF8DAD9EAD9AAF42
:101D600089AF89AD9AAD0197F1F79AAF89AF83E05A
:101D700061E00E949B0580E090E0A0E8BFE38DABAE
:101D80009EABAFABB8AF6DA97EA98FA998AD20E08F
:101D900030E04AEF54E40E941702DC01CB0189AB2A
:101DA0009AABABABBCAB69A97AA98BA99CA920E083
:101DB00030E040E85FE30E94710388232CF481E067
:101DC00090E098AB8FA73FC069A97AA98BA99CA97D
:101DD00020E03FEF4FE757E40E94110318164CF53F
:101DE0006DA97EA98FA998AD20E030E040E251E4D2
:101DF0000E941702DC01CB01BC01CD010E94410011
:101E0000DC01CB0198AB8FA70FC088EC90E09EA7B8
:101E10008DA78DA59EA50197F1F79EA78DA78FA5EC
:101E200098A9019798AB8FA78FA598A9009769F7F4
:101E300014C069A97AA98BA99CA90E944100DC0160
:101E4000CB0198AB8FA78FA598A99CA78BA78BA533
:101E50009CA50197F1F79CA78BA7ABE3B0E0EBE360
:101E6000F0E08081282F2F70FE01EF58FF4F808116
:101E7000882F90E082959295907F9827807F982771
:101E8000822B8C9380E090E0A0E8BFE38FA398A71B
:101E9000A9A7BAA76FA178A589A59AA520E030E0E7
:101EA0004AEF54E40E941702DC01CB018BA39CA3F0
:101EB000ADA3BEA36BA17CA18DA19EA120E030E0CB
:101EC00040E85FE30E94710388232CF481E090E0F6
:101ED0009AA389A33FC06BA17CA18DA19EA120E004
:101EE0003FEF4FE757E40E94110318164CF56FA11E
:101EF00078A589A59AA520E030E040E251E40E944F
:101F00001702DC01CB01BC01CD010E944100DC01C4
:101F1000CB019AA389A30FC088EC90E098A38F8F80
:101F20008F8D98A10197F1F798A38F8F89A19AA11E
:101F300001979AA389A389A19AA1009769F714C070
:101F40006BA17CA18DA19EA10E944100DC01CB016F
:101F50009AA389A389A19AA19E8F8D8F8D8D9E8D25
:101F60000197F1F79E8F8D8F83E060E00E949B05C3
:101F700080E090E0A0E8BFE3898F9A8FAB8FBC8FA1
:101F8000698D7A8D8B8D9C8D20E030E04AEF54E492
:101F90000E941702DC01CB018D8B9E8BAF8BB88F1B
:101FA0006D897E898F89988D20E030E040E85FE37D
:101FB0000E94710388232CF481E090E09C8B8B8B32
:101FC0003FC06D897E898F89988D20E03FEF4FE774
:101FD00057E40E94110318164CF5698D7A8D8B8D8C
:101FE0009C8D20E030E040E251E40E941702DC01C9
:101FF000CB01BC01CD010E944100DC01CB019C8BD7
:102000008B8B0FC088EC90E09A8B898B89899A8999
:102010000197F1F79A8B898B8B899C8901979C8B0F
:102020008B8B8B899C89009769F714C06D897E8999
:102030008F89988D0E944100DC01CB019C8B8B8B9A
:102040008B899C89988B8F878F8598890197F1F769
:10205000988B8F8783E061E00E949B0580E090E091
:10206000A0E7B1E48B879C87AD87BE876B857C85B5
:102070008D859E8520E030E04AEF54E40E941702EF
:10208000DC01CB018F839887A987BA876F81788518
:1020900089859A8520E030E040E85FE30E94710383
:1020A00088232CF481E090E09E838D833FC06F8174
:1020B000788589859A8520E03FEF4FE757E40E94B5
:1020C000110318164CF56B857C858D859E8520E067
:1020D00030E040E251E40E941702DC01CB01BC0178
:1020E000CD010E944100DC01CB019E838D830FC096
:1020F00088EC90E09C838B838B819C810197F1F726
:102100009C838B838D819E8101979E838D838D819E
:102110009E81009769F714C06F81788589859A85BB
:102120000E944100DC01CB019E838D838D819E81C5
:102130009A83898389819A810197F1F79A838983A8
:10214000CF58DF4F0FB6F894DEBF0FBECDBFCF9193
:10215000DF911F910F9108950F931F93DF93CF93FA
:10216000CDB7DEB7C157D0400FB6F894DEBF0FBE73
:10217000CDBFFE01EF58FF4F808381E061E00E94F8
:102180009B05FE01E359FF4F80E090E0A0E8BFE32C
:1021900080839183A283B3838E0107591F4FFE0171
:1021A000E359FF4F608171818281938120E030E0AB
:1021B0004AEF54E40E941702DC01CB01F80180834E
:1021C0009183A283B383FE01E759FF4F6081718140
:1021D0008281938120E030E040E85FE30E94710358
:1021E000882344F4FE01E959FF4F81E090E0918398
:1021F000808364C0FE01E759FF4F60817181828155
:10220000938120E03FEF4FE757E40E941103181637
:102210000CF043C0FE01E359FF4F60817181828160
:10222000938120E030E040E251E40E941702DC019B
:10223000CB018E0109591F4FBC01CD010E94410005
:10224000DC01CB01F801918380831FC0FE01EB59B3
:10225000FF4F88EC90E091838083FE01EB59FF4FA4
:10226000808191810197F1F7FE01EB59FF4F918336
:102270008083DE01A959BF4FFE01E959FF4F8081DC
:102280009181019711969C938E93FE01E959FF4F1E
:10229000808191810097D1F627C08E0109591F4F87
:1022A000FE01E759FF4F60817181828193810E9415
:1022B0004100DC01CB01F80191838083DE01AD593F
:1022C000BF4FFE01E959FF4F808191818D939C930F
:1022D000FE01ED59FF4F808191810197F1F7FE01D9
:1022E000ED59FF4F9183808383E061E00E949B055D
:1022F000FE01E15AFF4F80E090E0A0E8BFE3808359
:102300009183A283B3838E01055A1F4FFE01E15AC8
:10231000FF4F608171818281938120E030E04AEF3C
:1023200054E40E941702DC01CB01F8018083918301
:10233000A283B383FE01E55AFF4F608171818281E0
:10234000938120E030E040E85FE30E94710388233E
:1023500044F4FE01E75AFF4F81E090E091838083CF
:1023600064C0FE01E55AFF4F6081718182819381D3
:1023700020E03FEF4FE757E40E94110318160CF0DE
:1023800043C0FE01E15AFF4F6081718182819381D8
:1023900020E030E040E251E40E941702DC01CB0172
:1023A0008E01075A1F4FBC01CD010E944100DC0184
:1023B000CB01F801918380831FC0FE01E95AFF4FD2
:1023C00088EC90E091838083FE01E95AFF4F808181
:1023D00091810197F1F7FE01E95AFF4F91838083C4
:1023E000DE01A75ABF4FFE01E75AFF4F808191815E
:1023F000019711969C938E93FE01E75AFF4F8081BF
:1024000091810097D1F627C08E01075A1F4FFE0118
:10241000E55AFF4F60817181828193810E94410062
:10242000DC01CB01F80191838083DE01AB5ABF4F01
:10243000FE01E75AFF4F808191818D939C93FE01AD
:10244000EB5AFF4F808191810197F1F7FE01EB5A22
:10245000FF4F91838083ABE3B0E0EBE3F0E080815A
:10246000982F9F70FE01EF58FF4F8081807F892B4E
:102470008C93FE01EF5AFF4F80E090E0A0E8BFE3AD
:1024800080839183A283B3838E01035B1F4FFE0180
:10249000EF5AFF4F608171818281938120E030E0AB
:1024A0004AEF54E40E941702DC01CB01F80180835B
:1024B0009183A283B383FE01E35BFF4F608171814F
:1024C0008281938120E030E040E85FE30E94710365
:1024D000882344F4FE01E55BFF4F81E090E09183A7
:1024E000808364C0FE01E35BFF4F60817181828164
:1024F000938120E03FEF4FE757E40E941103181645
:102500000CF043C0FE01EF5AFF4F60817181828160
:10251000938120E030E040E251E40E941702DC01A8
:10252000CB018E01055B1F4FBC01CD010E94410014
:10253000DC01CB01F801918380831FC0FE01E75BC2
:10254000FF4F88EC90E091838083FE01E75BFF4FB3
:10255000808191810197F1F7FE01E75BFF4F918345
:102560008083DE01A55BBF4FFE01E55BFF4F8081ED
:102570009181019711969C938E93FE01E55BFF4F2D
:10258000808191810097D1F627C08E01055B1F4F96
:10259000FE01E35BFF4F60817181828193810E9424
:1025A0004100DC01CB01F80191838083DE01A95B4E
:1025B000BF4FFE01E55BFF4F808191818D939C931E
:1025C000FE01E95BFF4F808191810197F1F7FE01E8
:1025D000E95BFF4F9183808383E060E00E949B056D
:1025E000FE01ED5BFF4F80E090E0A0E8BFE3808359
:1025F0009183A283B3838E01015C1F4FFE01ED5BCB
:10260000FF4F608171818281938120E030E04AEF49
:1026100054E40E941702DC01CB01F801808391830E
:10262000A283B383FE01FF966081718182819381D1
:1026300020E030E040E85FE30E94710388232CF43F
:1026400081E090E09EAF8DAF46C0FE01FF966081B5
:1026500071818281938120E03FEF4FE757E40E9430
:102660001103181664F5FE01ED5BFF4F6081718167
:102670008281938120E030E040E251E40E94170221
:10268000DC01CB01BC01CD010E944100DC01CB018A
:102690009EAF8DAF0FC088EC90E09CAF8BAF8BAD41
:1026A0009CAD0197F1F79CAF8BAF8DAD9EAD0197BF
:1026B0009EAF8DAF8DAD9EAD009769F716C0FE0140
:1026C000FF9660817181828193810E944100DC01CB
:1026D000CB019EAF8DAF8DAD9EAD9AAF89AF89AD69
:1026E0009AAD0197F1F79AAF89AF83E061E00E945C
:1026F0009B0580E090E0A0E8BFE38DAB9EABAFAB65
:10270000B8AF6DA97EA98FA998AD20E030E04AEF5F
:1027100054E40E941702DC01CB0189AB9AABABAB4E
:10272000BCAB69A97AA98BA99CA920E030E040E85C
:102730005FE30E94710388232CF481E090E098AB62
:102740008FA73FC069A97AA98BA99CA920E03FEF78
:102750004FE757E40E94110318164CF56DA97EA9A6
:102760008FA998AD20E030E040E251E40E941702CA
:10277000DC01CB01BC01CD010E944100DC01CB0199
:1027800098AB8FA70FC088EC90E09EA78DA78DA572
:102790009EA50197F1F79EA78DA78FA598A90197F0
:1027A00098AB8FA78FA598A9009769F714C069A95E
:1027B0007AA98BA99CA90E944100DC01CB0198ABAE
:1027C0008FA78FA598A99CA78BA78BA59CA50197E0
:1027D000F1F79CA78BA7ABE3B0E0EBE3F0E08081DF
:1027E000282F2F70FE01EF58FF4F8081882F90E037
:1027F00082959295907F9827807F9827822B8C9343
:1028000080E090E0A0E8BFE38FA398A7A9A7BAA7AC
:102810006FA178A589A59AA520E030E04AEF54E49D
:102820000E941702DC01CB018BA39CA3ADA3BEA326
:102830006BA17CA18DA19EA120E030E040E85FE388
:102840000E94710388232CF481E090E09AA389A36D
:102850003FC06BA17CA18DA19EA120E03FEF4FE77F
:1028600057E40E94110318164CF56FA178A589A5AD
:102870009AA520E030E040E251E40E941702DC011A
:10288000CB01BC01CD010E944100DC01CB019AA328
:1028900089A30FC088EC90E098A38F8F8F8D98A1AB
:1028A0000197F1F798A38F8F89A19AA101979AA315
:1028B00089A389A19AA1009769F714C06BA17CA193
:1028C0008DA19EA10E944100DC01CB019AA389A3A6
:1028D00089A19AA19E8F8D8F8D8D9E8D0197F1F785
:1028E0009E8F8D8F83E060E00E949B0580E090E0EA
:1028F000A0E8BFE3898F9A8FAB8FBC8F698D7A8DEB
:102900008B8D9C8D20E030E04AEF54E40E9417024A
:10291000DC01CB018D8B9E8BAF8BB88F6D897E894F
:102920008F89988D20E030E040E85FE30E947103DA
:1029300088232CF481E090E09C8B8B8B3FC06D89C9
:102940007E898F89988D20E03FEF4FE757E40E9402
:10295000110318164CF5698D7A8D8B8D9C8D20E0B6
:1029600030E040E251E40E941702DC01CB01BC01DF
:10297000CD010E944100DC01CB019C8B8B8B0FC0F1
:1029800088EC90E09A8B898B89899A890197F1F775
:102990009A8B898B8B899C8901979C8B8B8B8B89DC
:1029A0009C89009769F714C06D897E898F89988DFD
:1029B0000E944100DC01CB019C8B8B8B8B899C8915
:1029C000988B8F878F8598890197F1F7988B8F87E0
:1029D00083E061E00E949B0580E090E0A0E7B1E425
:1029E0008B879C87AD87BE876B857C858D859E8513
:1029F00020E030E04AEF54E40E941702DC01CB01F2
:102A00008F839887A987BA876F81788589859A850A
:102A100020E030E040E85FE30E94710388232CF45B
:102A200081E090E09E838D833FC06F8178858985AA
:102A30009A8520E03FEF4FE757E40E9411031816F4
:102A40004CF56B857C858D859E8520E030E040E2ED
:102A500051E40E941702DC01CB01BC01CD010E94B0
:102A60004100DC01CB019E838D830FC088EC90E098
:102A70009C838B838B819C810197F1F79C838B8353
:102A80008D819E8101979E838D838D819E8100978C
:102A900069F714C06F81788589859A850E94410005
:102AA000DC01CB019E838D838D819E819A838983F6
:102AB00089819A810197F1F79A838983CF58DF4FF3
:102AC0000FB6F894DEBF0FBECDBFCF91DF911F913F
:102AD0000F910895DF93CF9300D000D0CDB7DEB72C
:102AE00089836A838A818823E1F08A818131C8F4ED
:102AF0008981282F30E03C832B838B819C8181301E
:102B0000910531F02B813C812230310531F009C033
:102B10008A8181580E94EE0B04C08A8181540E94F0
:102B2000EE0B0F900F900F900F90CF91DF910895C3
:102B3000DF93CF9300D00F92CDB7DEB79B838A830C
:102B400019820EC08981282F30E08A819B81FC0187
:102B5000E20FF31F80810E94AC1089818F5F89830F
:102B60008981282F30E08A819B81FC01E20FF31FCD
:102B70008081882339F70F900F900F90CF91DF91CC
:102B80000895DF93CF9300D000D000D0CDB7DEB74B
:102B90009D838C836E831B828E8181508A832CC09F
:102BA0008B81282F30E08C819D81FC01E20FF31F87
:102BB000808189838B81282F30E08C819D81DC018D
:102BC000A20FB31F8A81282F30E08C819D81FC01E8
:102BD000E20FF31F80818C938A81282F30E08C8153
:102BE0009D81FC01E20FF31F898180838B818F5FC0
:102BF0008B838A8181508A839B818A81981780F296
:102C000026960FB6F894DEBF0FBECDBFCF91DF91F1
:102C10000895DF93CF93CDB7DEB72C970FB6F89416
:102C2000DEBF0FBECDBF6C837D838E839F835987AC
:102C300048872A871B821A828C819D81AE81BF8141
:102C40000097A105B105D9F48B81282F30E0888544
:102C50009985FC01E20FF31F80E380838B818F5FF6
:102C60008B838B81282F30E088859985FC01E20FCA
:102C7000F31F1082888599859C878B878BC08C81F8
:102C80009D81AE81BF81BB230CF059C08A858A30FB
:102C900009F055C081E08A838C819D81AE81BF811E
:102CA000B095A095909581959F4FAF4FBF4F8C8366
:102CB0009D83AE83BF8343C08A85282F30E040E0E8
:102CC00050E08C819D81AE81BF81BC01CD010E940D
:102CD000EF17DC01CB01898389818A3078F08B8101
:102CE000282F30E088859985FC01E20FF31F898148
:102CF000895C80838B818F5F8B830EC08B81282FB3
:102D000030E088859985FC01E20FF31F8981805DA1
:102D100080838B818F5F8B838A85282F30E040E012
:102D200050E08C819D81AE81BF81BC01CD010E94AC
:102D3000EF17DA01C9018C839D83AE83BF838C8139
:102D40009D81AE81BF810097A105B10509F0B4CF87
:102D50008A81882369F08B81282F30E088859985C6
:102D6000FC01E20FF31F8DE280838B818F5F8B83E9
:102D70008B81282F30E088859985FC01E20FF31FB5
:102D80001082888599856B810E94C11588859985F7
:102D90009C878B878B859C852C960FB6F894DEBF1D
:102DA0000FBECDBFCF91DF910895DF93CF93CDB705
:102DB000DEB764970FB6F894DEBF0FBECDBF698B48
:102DC0007A8B8B8B9C8B89899A89AB89BC89BC0156
:102DD000CD019E012F5F3F4FA9012AE00E940916F5
:102DE000CE0101960E94981564960FB6F894DEBF46
:102DF0000FBECDBFCF91DF910895DF93CF930F9298
:102E0000CDB7DEB70E94F40781E40E94AC101982AE
:102E10000E94811789838981882F90E0A0E0B0E02B
:102E2000BC01CD010E94D516F3CFDF93CF9300D024
:102E300000D0CDB7DEB789838981282F30E03C836D
:102E40002B838B819C818530910509F441C02B81B6
:102E50003C8126303105DCF48B819C8182309105E8
:102E600071F12B813C812330310534F48B819C81BD
:102E70008130910509F13BC02B813C812330310524
:102E800009F18B819C8184309105F9F030C02B8150
:102E90003C812730310511F18B819C818730910570
:102EA000D4F02B813C8128303105D9F08B819C8175
:102EB00089309105C9F01BC091E09A831AC022E0C5
:102EC0002A8317C033E03A8314C084E08A8311C098
:102ED00095E09A830EC026E02A830BC037E03A8340
:102EE00008C088E08A8305C099E09A8302C02981DE
:102EF0002A838A810F900F900F900F90CF91DF91CE
:102F00000895DF93CF9300D0CDB7DEB71A8262C0A9
:102F1000E4E3F0E08A81282F30E080E290E002C014
:102F2000880F991F2A95E2F78083E5E3F0E08A8114
:102F3000282F30E080E290E0022E02C0880F991F17
:102F40000A94E2F78095808382E089833CC0E3E3C2
:102F5000F0E08081282F30E08981882F90E0A9015E
:102F600002C0559547958A95E2F7CA018170907025
:102F7000009731F5E3E3F0E08081282F30E089818C
:102F8000882F90E0A90102C0559547958A95E2F7F0
:102F9000CA0181709070009769F38981282F30E011
:102FA000C901880F991F820F931F982F8A81890F5B
:102FB00085500E9415170F900F90CF91DF910895C3
:102FC00089818F5F89838981853008F4C0CF8A81A8
:102FD0008F5F8A838A81833008F49ACF97CF97FBDB
:102FE000092E05260ED057FD04D014D00AD0001C9F
:102FF00038F450954095309521953F4F4F4F5F4F96
:103000000895F6F790958095709561957F4F8F4F55
:103010009F4F0895A1E21A2EAA1BBB1BFD010DC0F4
:10302000AA1FBB1FEE1FFF1FA217B307E407F50778
:1030300020F0A21BB30BE40BF50B661F771F881F54
:10304000991F1A9469F760957095809590959B01EA
:10305000AC01BD01CF0108952F923F924F925F9234
:103060006F927F928F929F92AF92BF92CF92DF9298
:10307000EF92FF920F931F93CF93DF93CDB7DEB7FD
:10308000CA1BDB0B0FB6F894DEBF0FBECDBF099491
:103090002A88398848885F846E847D848C849B84E8
:1030A000AA84B984C884DF80EE80FD800C811B81F6
:1030B000AA81B981CE0FD11D0FB6F894DEBF0FBE25
:0A30C000CDBFED010895F894FFCF95
:0830CA000000000000000000FE
:00000001FF
